S01100006D61696E5F6E6F64652E7372656369
S11300000C94C9000C94E6000C94E6000C94E600F1
S11300100C94E6000C94E6000C94E6000C94E600C4
S11300200C94C5010C94E6000C94E6000C94E600D4
S11300300C94E6000C94E6000C94E6000C94E600A4
S11300400C94E6000C94E6000C94E6000C94E60094
S11300500C94E6006E616E00696E660000407A10D2
S1130060F35A00A0724E18090010A5D4E80000E865
S11300707648170000E40B54020000CA9A3B0000C3
S113008000E1F505000080969800000040420F0052
S11300900000A08601000000102700000000E80313
S11300A0000000006400000000000A0000000000DE
S11300B00100000000002C76D888DC674F0823DF9D
S11300C0C1DFAE59E1B1B796E5E3E453C63AE65170
S11300D0997696E8E6C28426EB898C9B62ED407C97
S11300E06FFCEFBC9C9F40F2BAA56FA5F490055A33
S11300F02AF75C936B6CF9676DC11BFCE0E40D4758
S1130100FEF520E6B500D0ED902E0300943577057A
S11301100080841E080000204E0A000000C80C3332
S11301203333330F986E12831141EF8D2114893BC1
S1130130E65516CFFEE6DB18D1844B381BF77C1D41
S1130140901DA4BBE424203284725E228100C9F194
S113015024ECA1E53D274E414E494E495459494EA0
S113016046CDCCCC3D0AD7233C17B7D13877CC2B1E
S1130170329595E6241FB14F0A000020410000C8C3
S11301804200401C4620BCBE4CCA1B0E5AAEC59D44
S1130190740011241FBECFE5D4E0DEBFCDBF11E053
S11301A0A0E6B0E0E4EBF9E102C005900D92A432C0
S11301B0B107D9F723E0A4E2B1E001C01D92A8334E
S11301C0B207E1F70E9406040C94D80C0C940000CA
S11301D08F939F9388E290E06CD080E382BB939AE4
S11301E0939887E290E06FD08F939F9388EE93E08B
S11301F06AD09F918F9180E382BB939A939887E210
S113020090E061D08F939F9388EE93E05CD09F91B0
S11302108F9180E282BB939A939887E290E053D0C7
S11302208F939F9388EE93E04ED09F918F9188E2B5
S11302300ED08CE00CD081E00AD08AEF95E043D058
S113024086E005D09F918F91089581E000D08F932F
S11302509F93929806D087E290E035D09F918F913A
S113026008958F939F9380E797E12DD09F918F916D
S11302708F9390B39F70807F890F82BB939A9398DA
S11302808F939F9380E797E11ED09F918F918F91D9
S11302908295807F890F82BB939A939808958F9358
S11302A09F93929ADEDF8BE290E00DD09F918F9125
S11302B008958F939F9386EE93E005D09F918F913D
S11302C00197B9F7089501970000000000000000AD
S11302D0D1F70895E4DF1BB828E12AB990BD89B9A4
S11302E086E880BD08955D9BFECF8CB908955F9B21
S11302F0FECF8CB108951F93CF93DF93EC0110E0F0
S113030007C0FE01E80FF91F80810E9473011F5F7F
S1130310812F90E0FE0101900020E9F73197EC1B5A
S1130320FD0B8E179F0768F3DF91CF911F910895FE
S11303300F931F93CF93DF938C010E947B010E9444
S1130340770113C0863479F404C00E9477012196A2
S113035002C0C0E0D0E0C530D105BCF38FEF88BB4C
S1130360C8010E947B010E947701833559F7C0E0E0
S1130370D0E003C00E9477012196C830D105D4F3A0
S1130380DF91CF911F910F9108951F920F920FB695
S11303900F921124CF92DF92EF92FF920F931F934B
S11303A02F933F934F935F936F937F938F939F9379
S11303B0AF93BF93CF93DF93EF93FF9380912F037A
S11303C0811103C2E12CF12C46C182E1E0E6F0E0A8
S11303D0ABE2B1E001900D928A95E1F78BE291E0F6
S11303E00E947B010E9477018232E1F70E9477012B
S11303F0863411F010E001C011E0C0E0D0E00AC082
S11304006E012FEFC21AD20AC05DDC4F88830E94AE
S11304107701E601823211F0112391F30E947701F2
S113042011112EC025E030E00CC0F901E81BF90BD6
S1130430E05DFC4F8081F901E05DFC4F8083215039
S1130440310986E090E08C1B9D0B281739076CF767
S113045020E030E007C0F901E05DFC4F40E3408359
S11304602F5F3F4F28173907B4F380E393E00E94CE
S11304705808F701EE0FFF1FEC5DFE4F9183808358
S11304800E9477018232E1F70E947701863409F4F1
S113049011E0C0E0D0E00AC06E019FEFC91AD90A8A
S11304A0C05DDC4F88830E947701E601823211F03F
S11304B0112391F30E947701111132C025E030E03D
S11304C00CC0F901E81BF90BE05DFC4F8081F901D8
S11304D0E05DFC4F80832150310986E090E08C1B65
S11304E09D0B281739076CF720E030E007C0F901AD
S11304F0E05DFC4F40E340832F5F3F4F28173907EF
S1130500B4F380E393E00E945408F701EE0FFF1F59
S1130510EE0FFF1FE555FD4F608371838283938344
S11305200E9477018232E1F70E947701863409F450
S113053011E0C0E0D0E00AC06E012FEFC21AD20A67
S1130540C05DDC4F88830E947701E601823211F09E
S1130550112391F30E94770111112EC025E030E0A0
S11305600CC0F901E81BF90BE05DFC4F8081F90137
S1130570E05DFC4F80832150310986E090E08C1BC4
S11305809D0B281739076CF720E030E007C0F9010C
S1130590E05DFC4F40E340832F5F3F4F281739074E
S11305A0B4F380E393E00E945808F701EE0FFF1FB5
S11305B0E85DFE4F918380830E9477018232E1F7E8
S11305C00E947701863409F411E0C0E0D0E00AC04B
S11305D06E019FEFC91AD90AC05DDC4F88830E945F
S11305E07701E601823211F0112391F30E94770121
S11305F011112EC025E030E00CC0F901E81BF90B05
S1130600E05DFC4F8081F901E05DFC4F8083215067
S1130610310986E090E08C1B9D0B281739076CF795
S113062020E030E007C0F901E05DFC4F40E3408387
S11306302F5F3F4F28173907B4F380E393E00E94FC
S11306405808F701EE0FFF1FEA5DFE4F9183808388
S11306502FEFE21AF20A1E141F040CF0B6CE111189
S1130660B6C00E94250100E010E0EE24E394F12CD2
S1130670C12CD12CA4C0F801EE0FFF1FEE0FFF1FF9
S1130680E555FD4F80819181228133813F932F93E2
S11306909F938F931F930F9382E790E09F938F9381
S11306A08FEA92E09F938F930E94A8098DB79EB71B
S11306B00A960FB6F8949EBF0FBE8DBFC0E0D0E07F
S11306C007C0FE01E155FD4F80810E946A01219619
S11306D0EFEAF2E001900020E9F73197EF5AF24097
S11306E0CE17DF0770F3F801EE0FFF1FEC5DFE4F2E
S11306F080819181803223E092077CF086E0EEE7EE
S1130700F0E0AFEAB2E001900D928A95E1F781E062
S1130710F801E65DFE4F808323C0883522E092070E
S11307207CF081E0F801E65DFE4F808385E0EFE731
S1130730F0E0AFEAB2E001900D928A95E1F710C0C3
S11307408237914084F0F801E65DFE4F108285E027
S1130750E5E8F0E0AFEAB2E001900D928A95E1F7A6
S1130760C0E0D0E015C0F801E65DFE4F108286E0DF
S1130770E4E8F0E0AFEAB2E001900D928A95E1F787
S1130780EFCFFE01E155FD4F80810E946A01219661
S1130790EFEAF2E001900020E9F73197EF5AF240D6
S11307A0CE17DF0770F3F801E65DFE4F80818823E2
S11307B011F0CE28DF28EE0CFF1C0F5F1F4F101620
S11307C011060CF058CFC8BA02C010922F030E9431
S11307D025018CED9BE09DBD8CBDFF91EF91DF91D8
S11307E0CF91BF91AF919F918F917F916F915F91C5
S11307F04F913F912F911F910F91FF90EF90DF90B8
S1130800CF900F900FBE0F901F90189581E08093AA
S11308102F0383E390E00E946B018AE00E9473013E
S113082080E090E01EC09C01220F331FF901EC5DB3
S1130830FE4F11821082FC01EE0FFF1FEE0FFF1F0F
S1130840E555FD4F1082118212821382F901E85D91
S1130850FE4F11821082F901EA5DFE4F118210826F
S1130860019618161906FCF68DE0EAE8F0E0ABE212
S1130870B1E001900D928A95E1F78BE291E00E943C
S113088098010E94770102C00E9477015F99FCCF12
S113089087E1E7E9F0E0ABE2B1E001900D928A95DF
S11308A0E1F78BE291E00E9498018BE1EEEAF0E03F
S11308B0ABE2B1E001900D928A95E1F78BE291E011
S11308C00E94980189E1E9ECF0E0ABE2B1E001902B
S11308D00D928A95E1F78BE291E00E9498018BE1F9
S11308E0E2EEF0E0ABE2B1E001900D928A95E1F71F
S11308F08BE291E00E94980189E1EDEFF0E0ABE238
S1130900B1E001900D928A95E1F78BE291E00E94AB
S113091098018DE0E6E1F1E0ABE2B1E001900D92E7
S11309208A95E1F78BE291E00E94980185E08EBD03
S11309308CED9BE09DBD8CBD84E089BF7894FFCF96
S1130940A0E1B0E0E6EAF4E00C941D087C011B0190
S11309506A01FC0117821682838181FF44C39E01D0
S11309602F5F3F4F3901F7019381F10193FD859189
S113097093FF81911F01882309F431C3853239F42F
S113098093FD859193FF81911F01853239F4B7015D
S113099090E00E946C0956016501E5CF10E0512CEE
S11309A0912CFFE1F915D8F08B3279F038F48032CC
S11309B079F08332A1F4F92DF0612EC08D3261F00B
S11309C0803369F4292D21602DC0392D3260932E96
S11309D0892D8460982E2AC0E92DE86015C097FC03
S11309E02DC020ED280F2A3088F496FE06C03AE088
S11309F0139F200D1124122F19C08AE0589E200D38
S1130A001124522EE92DE0629E2E10C08E3231F454
S1130A1096FCE5C2F92DF0649F2E08C08C3621F4B3
S1130A20292D2068922E02C0883641F4F10193FDED
S1130A30859193FF81911F018111B3CF9BEB980F97
S1130A40933020F4992D9061805E07C09BE9980F44
S1130A50933008F066C1992D9F7E96FF16E09F7330
S1130A60992E853619F49064992E08C0863621F49F
S1130A70392F3068932E02C01111115097FE07C010
S1130A801C3350F444244394410E27E00BC0183027
S1130A9038F027E017E005C027E09CE3492E02C0A8
S1130AA0212F412C560184E0A80EB11CF60160816F
S1130AB0718182819381042DA3010E9476086C01C7
S1130AC0F981FC87F0FF02C0F3FF06C091FC06C069
S1130AD092FE06C000E205C00DE203C00BE201C0B5
S1130AE000E08C858C7019F001115AC29BC297FEEC
S1130AF010C04C0CFC85F4FF04C08A81813309F4D6
S1130B004A94141474F528E0241578F588E0482EE6
S1130B102CC096FC2AC0812F90E08C159D059CF07A
S1130B203CEFC3163FEFD30674F0892D8068982EEE
S1130B300AC0E2E0F0E0EC0FFD1FE10FF11D80813F
S1130B40803319F411501111F4CF97FE0EC04424D0
S1130B504394410E812F90E0C816D9062CF41C1939
S1130B6004C04424439401C010E097FE06C01C1442
S1130B701D0434F4C601019605C085E090E002C06E
S1130B8081E090E001110196112331F0212F30E032
S1130B902F5F3F4F820F931F252D30E0821793075D
S1130BA014F4581A01C0512C892D897049F4552028
S1130BB039F0B70180E290E00E946C095A94F7CFB3
S1130BC0002329F0B701802F90E00E946C0993FC68
S1130BD009C0552039F0B70180E390E00E946C0908
S1130BE05A94F7CF97FE4CC04601D7FE02C0812C21
S1130BF0912CC60188199909F301E80FF91FFE87A2
S1130C00ED87960124193109388B2F87012F10E0C5
S1130C101195019511093FEF8316930629F4B70145
S1130C208EE290E00E946C09C814D9044CF08F85C0
S1130C3098898815990524F4ED85FE85818101C084
S1130C4080E3F1E08F1A91082D853E852F5F3F4F99
S1130C503E872D87801691062CF0B70190E00E9404
S1130C606C09D9CFC814D90441F49A81963320F47D
S1130C70953319F43C8534FF81E3B70190E04EC00D
S1130C808A81813319F09C859F7E9C87B70190E00F
S1130C900E946C09111105C094FC18C085E690E00F
S1130CA017C0B7018EE290E00E946C091E5F82E0DB
S1130CB001E0080FF301E80FF11D8081B70190E016
S1130CC00E946C09802F0113F3CFE6CF85E490E0F6
S1130CD0B7010E946C09D7FC06C0C114D10441F4C9
S1130CE0EC85E4FF05C0D194C194D1088DE201C024
S1130CF08BE2B70190E00E946C0980E32AE0C216FF
S1130D00D1042CF08F5FFAE0CF1AD108F7CFB701E6
S1130D1090E00E946C09B701C601C0960E946C095C
S1130D2054C1833631F0833779F0833509F056C0E6
S1130D3020C0560132E0A30EB11CF60180818983E4
S1130D4001E010E0630112C05601F2E0AF0EB11CE5
S1130D50F601C080D18096FE03C0612F70E002C00E
S1130D606FEF7FEFC6010E9459098C01F92DFF77BF
S1130D7014C0560122E0A20EB11CF601C080D1803D
S1130D8096FE03C0612F70E002C06FEF7FEFC601D3
S1130D900E944E098C01F92DF0689F2EF3FD1AC0B4
S1130DA0852D90E008171907A8F4B70180E290E0B8
S1130DB00E946C095A94F4CFF60197FC859197FE32
S1130DC081916F01B70190E00E946C0951105A940F
S1130DD0015011090115110579F7F7C0843611F096
S1130DE0893661F5560197FE09C024E0A20EB11CB4
S1130DF0F60160817181828193810AC0F2E0AF0EB5
S1130E00B11CF60160817181072E000C880B990BCF
S1130E10F92DFF769F2E97FF09C0909580957095C8
S1130E2061957F4F8F4F9F4FF0689F2E2AE030E0EF
S1130E30A3010E94CA09C82EC6183FC0092D8537D0
S1130E4021F40F7E2AE030E01DC0097F8F3691F037
S1130E5018F4883559F0C3C0803719F0883711F079
S1130E60BEC0006104FF09C0046007C094FE08C04E
S1130E70066006C028E030E005C020E130E002C092
S1130E8020E132E0560107FF09C084E0A80EB11C3E
S1130E90F601608171818281938108C0F2E0AF0E16
S1130EA0B11CF6016081718180E090E0A3010E9491
S1130EB0CA09C82EC6180F77902E96FE0BC0092DAE
S1130EC00E7FC11650F494FE0AC092FC08C0092D8E
S1130ED00E7E05C0DC2C092D03C0DC2C01C0D12EF4
S1130EE004FF0DC0FE01EC0DF11D8081803311F46F
S1130EF0097E09C002FF06C0D394D39404C0802F96
S1130F00867809F0D39403FD11C000FF06C01C2DA0
S1130F10D51480F4150D1D190DC0D51458F4B7015E
S1130F2080E290E00E946C09D394F7CFD51410F4BA
S1130F305D1801C0512C04FF10C0B70180E390E09C
S1130F400E946C0902FF17C001FD03C088E790E00E
S1130F5002C088E590E0B7010CC0802F867859F074
S1130F6001FF02C08BE201C080E207FD8DE2B70100
S1130F7090E00E946C09C11638F4B70180E390E058
S1130F800E946C091150F7CFCA94F301EC0DF11DC6
S1130F908081B70190E00E946C09C110F5CF15C0A3
S1130FA0F4E0F51560F584E0581A93FE1FC00111B2
S1130FB027C02C8523FF2AC004E510E0392D3071A9
S1130FC0932EF8018491811124C0552009F4E4CCB6
S1130FD0B70180E290E00E946C095A94F6CFF701C1
S1130FE08681978126C08FEF9FEF23C0B70180E2EF
S1130FF090E00E946C095A945110F8CFD8CF512C2C
S1131000B701802F90E00E946C09D3CF08E510E06F
S1131010D5CF91108052B70190E00E946C090F5F08
S11310201F4FCFCF23E0251510F483E0BDCF512C03
S1131030C0CF6096E2E10C9439082F923F924F9210
S11310405F926F927F928F929F92AF92BF92CF9254
S1131050DF92EF92FF920F931F93CF93DF93CDB75D
S1131060DEB7CA1BDB0B0FB6F894DEBF0FBECDBFD5
S113107009942A88398848885F846E847D848C84A6
S11310809B84AA84B984C884DF80EE80FD800C81AF
S11310901B81AA81B981CE0FD11D0FB6F894DEBF92
S11310A00FBECDBFED010895662777270C94280A5B
S11310B0FC0188279927E89421912032E9F329300B
S11310C010F02E30C8F32B3241F02D3239F46894ED
S11310D004C00E946409820F911D219120532A307B
S11310E0C0F31EF4909581959F4F0895283008F021
S11310F027E03327DA01990F311D87FD91600096AF
S11311006105710539F432602E5F3D9330E32A9511
S1131110E1F708959F3F30F080387105610509F0CB
S11311203C5F3C5F3D93913008F08068911DDF93F4
S1131130CF931F930F93FF92EF92192F987F969559
S1131140E92F96959695E90FFF27EA54FF4F9927C3
S11311503327EE24FF24A701E701059008940794A0
S113116028F4360FE71EF81E491F511D660F771F1E
S1131170881F991F0694A1F70590079428F4E70E99
S1131180F81E491F561FC11D770F881F991F661F20
S11311900694A1F70590079428F4F80E491F561FEA
S11311A0C71FD11D880F991F661F771F0694A1F7CB
S11311B00590079420F4490F561FC71FD81F990F95
S11311C0661F771F881F0694A9F7849110951770DE
S11311D041F0D695C79557954795F794E7941A9596
S11311E0C1F7ECE5F0E0689415901591359165919F
S11311F0959105907FE27395E118F10A430B560B24
S1131200C90BD009C0F7E10CF11E431F561FC91FBB
S1131210D01D7EF4703311F48A95E6CFE894015022
S113122030F0080F0AF40027021708F4202F239542
S1131230022F7A3328F079E37D932A95E9F710C0D9
S11312407D932A9589F60694979567953795179512
S11312501794E118F10A430B560BC90BD00998F007
S113126023957E9173957A3308F070E37C93201371
S1131270B8F77E9170617D9330F0839571E37D932F
S113128070E32A95E1F71124EF90FF900F911F91DD
S1131290CF91DF91992787FD90950895FC010590E2
S11312A0615070400110D8F7809590958E0F9F1F64
S11312B00895FC016150704001900110D8F78095A9
S11312C090958E0F9F1F08957AE0979F902D879F8A
S11312D0802D910D112408950F931F93CF93DF93C5
S11312E0FB01238121FD03C08FEF9FEF2CC022FF60
S11312F016C046815781248135814217530744F42F
S1131300A081B1819D012F5F3F4F318320838C9356
S1131310268137812F5F3F4F3783268314C08B018B
S1131320EC01FB010084F185E02D0995892BE1F6A0
S1131330D80116968D919C911797019617969C93B8
S11313408E931697CE01DF91CF911F910F9108953F
S1131350AEE0B0E0EEEAF9E00C942B080D891E89AA
S113136086E08C831A8309838FEF9FE79E838D83A6
S1131370AE01475E5F4F6F89788DCE0101960E9462
S1131380A004EF81F885E00FF11F10822E96E4E0AF
S11313900C944708FA01AA27283051F1203181F131
S11313A0E8946F936E7F6E5F7F4F8F4F9F4FAF4F69
S11313B0B1E03ED0B4E03CD0670F781F891F9A1F7C
S11313C0A11D680F791F8A1F911DA11D6A0F711D30
S11313D0811D911DA11D20D009F468943F912AE03C
S11313E0269F11243019305D3193DEF6CF01089524
S11313F0462F4770405D4193B3E00FD0C9F7F6CF55
S1131400462F4F70405D4A3318F0495D31FD40521C
S1131410419302D0A9F7EACFB4E0A69597958795B2
S113142077956795BA95C9F7009761057105089591
S11314309B01AC010A2E069457954795379527953D
S1131440BA95C9F7620F731F841F951FA01D0895D5
S1131450A0E0B0E0EEE2FAE00C942308EC016B01AA
S11314606115710519F0FB01918380837E01FFEF03
S1131470EF1AFF0A0881802F90E00E94760B892BD7
S113148011F0E701F3CF0D3239F47E0182E0E80E6A
S1131490F11C098111E008C00B3229F47E0192E0AD
S11314A0E90EF11C098110E0E701219743E050E0C7
S11314B06EE571E0CE010E947F0B892BC1F4239667
S11314C045E050E069E571E0CE010E947F0B892B75
S11314D009F42596C114D10419F0F601D183C0830F
S11314E01111F6C060E070E080E89FE7FAC043E0C5
S11314F050E066E571E0CE010E947F0B892B59F420
S1131500C114D10409F4E9C0F2E0EF0EF11CF601B4
S1131510F182E082E2C020E030E0A901C0E0D0E046
S1131520F70180EDA82EA00E89E08A1530F1912FE5
S11315309260B92E812F887012FF04C0811124C0DB
S1131540219622C081112197A5E0B0E00E94BE0C33
S1131550DC01CB01880F991FAA1FBB1F9C01AD01A1
S11315602A0D311D411D511D283989E938074807C5
S113157089E1580748F0166006C09EEFA9120AC018
S113158013FD40C01860B12E8FEFE81AF80A0081ED
S11315901B2DC6CF802F8F7D8534A1F580818D32A0
S11315A011F4106106C08B3221F0319661E070E0D5
S11315B004C08181329662E070E080538A3018F072
S11315C0E61BF70B1FC060E070E060389CE0790711
S11315D05CF4DB01AA0FBB1FAA0FBB1F6A0F7B1FA2
S11315E0660F771F680F711D3196DF0111978C917B
S11315F080538A3050F314FF03C0719561957109CB
S1131600C60FD71F11FF08C0C114D10429F0CF01A0
S11316100197F60191838083CA01B9010E949C0B52
S1131620212F2370233019F04B015C0106C04B01BC
S11316305C01B7FAB094B7F8B09420E030E0A901A7
S1131640C501B4010E94970B882309F43EC0D7FF5B
S113165006C0D195C195D10905E711E002C00DE896
S113166011E06801F8E1CF1AD10890E2E92EF12CDB
S1131670CE15DF0574F0F80125913591459154910B
S1131680C501B4010E94FD0B4B015C01CE19DF09B9
S1131690EFCF04501109F594E7940C151D0541F79B
S11316A08A2D880F8B2D881F8F3F49F020E030E072
S11316B0A901C501B4010E94970B811106C082E201
S11316C090E09093370380933603C501B40109C0B9
S11316D060E070E080E89FEF04C060E070E080ECC0
S11316E09FE7CDB7DEB7ECE00C943F0891110C9462
S11316F06A0C803219F089508550C8F70895FB01AF
S1131700DC014150504088F08D9181341CF08B35C0
S11317100CF4805E659161341CF06B350CF4605EF2
S1131720861B611171F3990B0895881BFCCF0E94ED
S1131730D90B08F481E00895E89409C097FB3EF4BE
S113174090958095709561957F4F8F4F9F4F99230A
S1131750A9F0F92F96E9BB279395F6958795779588
S11317606795B795F111F8CFFAF4BB0F11F460FF48
S11317701BC06F5F7F4F8F4F9F4F16C0882311F0A0
S113178096E911C0772321F09EE8872F762F05C0B4
S1131790662371F096E8862F70E060E02AF09A954F
S11317A0660F771F881FDAF7880F9695879597F944
S11317B00895990F0008550FAA0BE0E8FEEF1616DE
S11317C01706E807F907C0F012161306E407F50731
S11317D098F0621B730B840B950B39F40A2661F0A5
S11317E0232B242B252B21F408950A2609F4A14048
S11317F0A6958FEF811D811D08950E94100C0C94F5
S1131800840C0E94760C38F00E947D0C20F0952305
S113181011F00C946D0C0C94730C11240C94B80CF2
S11318200E94950C70F3959FC1F3950F50E0551FDE
S1131830629FF001729FBB27F00DB11D639FAA2721
S1131840F00DB11DAA1F649F6627B00DA11D661F70
S1131850829F2227B00DA11D621F739FB00DA11D91
S1131860621F839FA00D611D221F749F3327A00D4B
S1131870611D231F849F600D211D822F762F6A2FE7
S113188011249F5750409AF0F1F088234AF0EE0F4C
S1131890FF1FBB1F661F771F881F91505040A9F779
S11318A09E3F510580F00C946D0C0C94B80C5F3F76
S11318B0E4F3983ED4F3869577956795B795F795B5
S11318C0E7959F5FC1F7FE2B880F911D969587952D
S11318D097F9089599278827089597F99F6780E8CD
S11318E070E060E008959FEF80EC089500240A946E
S11318F01616170618060906089500240A941216E7
S11319001306140605060895092E0394000C11F419
S1131910882352F0BB0F40F4BF2B11F460FF04C0C6
S11319206F5F7F4F8F4F9F4F089557FD9058440F1F
S1131930551F59F05F3F71F04795880F97FB991F2A
S113194061F09F3F79F087950895121613061406E7
S1131950551FF2CF4695F1DF08C016161706180674
S1131960991FF1CF86957105610508940895E8944F
S1131970BB2766277727CB0197F908950E94C90CE6
S1131980A59F900DB49F900DA49F800D911D1124CF
S11319900895A29FB001B39FC001A39F700D811D44
S11319A01124911DB29F700D811D1124911D089564
S10719B0F894FFCFD5
S11319B44553503A676574416C6C56616C75657334
S11319C40A00542025643A20252E3166200056440A
S11319D4525920005648554D20004553503A7265DB
S11319E473746172740A004553503A737369643AA8
S11319F4224D61696E5F426F617264220A0045532D
S1131A04503A61646453656E736F723A224D6F6920
S1131A1473745F617667220A004553503A616464C3
S1131A2453656E736F723A22546D705F61766722E8
S1131A340A004553503A61646453656E736F723A95
S1131A44224D6F6973745F766172220A00455350A4
S1131A543A61646453656E736F723A22546D705FB5
S1131A64766172220A004553503A415053746172AC
S1071A74740A0000EC
S9030000FC
