S013000073656E736F725F6E6F64652E7372656372
S11300000C94AB000C94C8000C94C8000C94C80069
S11300100C94C8000C94C8000C94C8000C94C8003C
S11300200C94A7010C94C8000C94C8000C94C8004C
S11300300C94C8000C94C8000C9418020C94C800CA
S11300400C94C8000C94C8000C94C8000C94C8000C
S11300500C94C8006E616E00696E660000407A10F0
S1130060F35A00A0724E18090010A5D4E80000E865
S11300707648170000E40B54020000CA9A3B0000C3
S113008000E1F505000080969800000040420F0052
S11300900000A08601000000102700000000E80313
S11300A0000000006400000000000A0000000000DE
S11300B00100000000002C76D888DC674F0823DF9D
S11300C0C1DFAE59E1B1B796E5E3E453C63AE65170
S11300D0997696E8E6C28426EB898C9B62ED407C97
S11300E06FFCEFBC9C9F40F2BAA56FA5F490055A33
S11300F02AF75C936B6CF9676DC11BFCE0E40D4758
S1130100FEF520E6B500D0ED902E0300943577057A
S11301100080841E080000204E0A000000C80C3332
S11301203333330F986E12831141EF8D2114893BC1
S1130130E65516CFFEE6DB18D1844B381BF77C1D41
S1130140901DA4BBE424203284725E228100C9F194
S113015024ECA1E53D2711241FBECFE5D4E0DEBF8A
S1130160CDBF11E0A0E6B0E0E8E2F2E102C0059004
S11301700D92A831B107D9F722E0A8E1B1E001C09E
S11301801D92A03AB207E1F70E944B020C941209A7
S11301900C9400008F939F9388E290E06CD080E3EE
S11301A082BB939A939887E290E06FD08F939F934A
S11301B088EE93E06AD09F918F9180E382BB939AFB
S11301C0939887E290E061D08F939F9388EE93E0B9
S11301D05CD09F918F9180E282BB939A939887E23F
S11301E090E053D08F939F9388EE93E04ED09F91ED
S11301F08F9188E20ED08CE00CD081E00AD08AEF97
S113020095E043D086E005D09F918F91089581E0D9
S113021000D08F939F93929806D087E290E035D0D8
S11302209F918F9108958F939F9380E797E12DD0AD
S11302309F918F918F9390B39F70807F890F82BB22
S1130240939A93988F939F9380E797E11ED09F9101
S11302508F918F918295807F890F82BB939A939817
S113026008958F939F93929ADEDF8BE290E00DD0F6
S11302709F918F9108958F939F9386EE93E005D07D
S11302809F918F910197B9F708950197000000009D
S113029000000000D1F70895E4DF1BB828E12AB973
S11302A090BD89B986E880BD08955D9BFECF8CB969
S11302B008955F9BFECF8CB108951F93CF93DF9376
S11302C0EC0110E007C0FE01E80FF91F80810E94D5
S11302D055011F5F812F90E0FE0101900020E9F796
S11302E03197EC1BFD0B8E179F0768F3DF91CF91BD
S11302F01F9108950F931F93CF93DF938C010E9456
S11303005D010E94590113C0863479F404C00E942F
S11303105901219602C0C0E0D0E0C530D105BCF33C
S11303208FEF88BBC8010E945D010E94590183358B
S113033059F7C0E0D0E003C00E9459012196C830AB
S1130340D105D4F3DF91CF911F910F9108951F929E
S11303500F920FB60F9211242F933F934F935F93F5
S11303606F937F938F939F93AF93BF93CF93DF93B9
S1130370EF93FF938BB18091600081113BC080911A
S11303809F028F9380919E028F9381E690E09F93CA
S11303908F93C8E1D1E0DF93CF930E949208CE01FE
S11303A00E947A016091980170919901072E000CC6
S11303B0880B990B0E94BB0220E030E040E05FE331
S11303C00E94F6029F938F937F936F9385E890E04A
S11303D09F938F93DF93CF930E949208CE010E9444
S11303E07A018DB79EB70E960FB6F8949EBF0FBED6
S11303F08DBF02C01092600080E487B986B180642A
S113040086B98EEE95E89DBD8CBDFF91EF91DF918D
S1130410CF91BF91AF919F918F917F916F915F9198
S11304204F913F912F910F900FBE0F901F901895F1
S11304301F920F920FB60F9211242F933F934F9355
S11304405F936F937F938F939F93AF93BF93EF9338
S1130450FF9388B3809588BB84B195B190939F0234
S113046080939E0284E190E0909399018093980197
S11304700E940701FF91EF91BF91AF919F918F91DE
S11304807F916F915F914F913F912F910F900FBE8C
S11304900F901F90189581E080936000109299014D
S11304A01092980110929F0210929E021ABA8FEF36
S11304B087BB81BB85E08EBD8EEE95E89DBD8CBD6E
S11304C084E089BF8FE886B90E94CA0083E390E084
S11304D00E944D018AE00E9455018DE0E9EAF0E0B6
S11304E0A8E1B1E001900D928A95E1F788E191E0ED
S11304F00E945D010E94590102C00E9459015F9946
S1130500FCCF88E1E6EBF0E0A8E1B1E001900D92C8
S11305108A95E1F788E191E00E947A018FE1EEEC9F
S1130520F0E0A8E1B1E001900D928A95E1F788E14D
S113053091E00E947A018DE1EDEEF0E0A8E1B1E0F6
S113054001900D928A95E1F788E191E00E947A0189
S11305508DE0EAE0F1E0A8E1B1E001900D928A9526
S1130560E1F788E191E00E947A0178948FEF88BBEB
S1130570FFCFE89409C097FB3EF490958095709561
S113058061957F4F8F4F9F4F9923A9F0F92F96E9DB
S1130590BB279395F695879577956795B795F11150
S11305A0F8CFFAF4BB0F11F460FF1BC06F5F7F4FED
S11305B08F4F9F4F16C0882311F096E911C07723FF
S11305C021F09EE8872F762F05C0662371F096E808
S11305D0862F70E060E02AF09A95660F771F881FD7
S11305E0DAF7880F9695879597F908950E9409037D
S11305F00C947A030E946C0338F00E94730320F079
S1130600952311F00C9463030C94690311240C9446
S1130610AE030E948B0370F3959FC1F3950F50E0D6
S1130620551F629FF001729FBB27F00DB11D639FA0
S1130630AA27F00DB11DAA1F649F6627B00DA11D46
S1130640661F829F2227B00DA11D621F739FB00DEC
S1130650A11D621F839FA00D611D221F749F33275C
S1130660A00D611D231F849F600D211D822F762FF5
S11306706A2F11249F5750409AF0F1F088234AF0D2
S1130680EE0FFF1FBB1F661F771F881F915050403E
S1130690A9F79E3F510580F00C9463030C94AE03BC
S11306A05F3FE4F3983ED4F3869577956795B795C5
S11306B0F795E7959F5FC1F7FE2B880F911D9695DF
S11306C0879597F9089597F99F6780E870E060E04F
S11306D008959FEF80EC089500240A9416161706D7
S11306E018060906089500240A941216130614061F
S11306F005060895092E0394000C11F4882352F082
S1130700BB0F40F4BF2B11F460FF04C06F5F7F4F39
S11307108F4F9F4F089557FD9058440F551F59F020
S11307205F3F71F04795880F97FB991F61F09F3FDA
S113073079F087950895121613061406551FF2CF03
S11307404695F1DF08C0161617061806991FF1CF53
S113075086957105610508940895E894BB2766277A
S11307607727CB0197F90895A0E1B0E0EAEBF3E035
S11307700C9431077C011B016A01FC01178216826B
S1130780838181FF44C39E012F5F3F4F3901F701ED
S11307909381F10193FD859193FF81911F0188233A
S11307A009F431C3853239F493FD859193FF819126
S11307B01F01853239F4B70190E00E9456085601B2
S11307C06501E5CF10E0512C912CFFE1F915D8F02B
S11307D08B3279F038F4803279F08332A1F4F92D38
S11307E0F0612EC08D3261F0803369F4292D2160CF
S11307F02DC0392D3260932E892D8460982E2AC005
S1130800E92DE86015C097FC2DC020ED280F2A3093
S113081088F496FE06C03AE0139F200D1124122F8F
S113082019C08AE0589E200D1124522EE92DE06251
S11308309E2E10C08E3231F496FCE5C2F92DF06480
S11308409F2E08C08C3621F4292D2068922E02C0D8
S1130850883641F4F10193FD859193FF81911F0145
S11308608111B3CF9BEB980F933020F4992D9061B5
S1130870805E07C09BE9980F933008F066C1992DFC
S11308809F7E96FF16E09F73992E853619F4906427
S1130890992E08C0863621F4392F3068932E02C071
S11308A01111115097FE07C01C3350F44424439493
S11308B0410E27E00BC0183038F027E017E005C0E0
S11308C027E09CE3492E02C0212F412C560184E0ED
S11308D0A80EB11CF6016081718182819381042D7F
S11308E0A3010E9468076C01F981FC87F0FF02C034
S11308F0F3FF06C091FC06C092FE06C000E205C0EC
S11309000DE203C00BE201C000E08C858C7019F08D
S113091001115AC29BC297FE10C04C0CFC85F4FF17
S113092004C08A81813309F44A94141474F528E0CC
S1130930241578F588E0482E2CC096FC2AC0812F17
S113094090E08C159D059CF03CEFC3163FEFD30659
S113095074F0892D8068982E0AC0E2E0F0E0EC0F74
S1130960FD1FE10FF11D8081803319F41150111125
S1130970F4CF97FE0EC044244394410E812F90E09F
S1130980C816D9062CF41C1904C04424439401C08D
S113099010E097FE06C01C141D0434F4C601019631
S11309A005C085E090E002C081E090E0011101966D
S11309B0112331F0212F30E02F5F3F4F820F931F1F
S11309C0252D30E08217930714F4581A01C0512CD6
S11309D0892D897049F4552039F0B70180E290E0FF
S11309E00E9456085A94F7CF002329F0B701802FAC
S11309F090E00E94560893FC09C0552039F0B701D5
S1130A0080E390E00E9456085A94F7CF97FE4CC0BA
S1130A104601D7FE02C0812C912CC6018819990980
S1130A20F301E80FF91FFE87ED87960124193109B8
S1130A30388B2F87012F10E01195019511093FEF95
S1130A408316930629F4B7018EE290E00E945608BB
S1130A50C814D9044CF08F8598898815990524F415
S1130A60ED85FE85818101C080E3F1E08F1A910854
S1130A702D853E852F5F3F4F3E872D87801691063B
S1130A802CF0B70190E00E945608D9CFC814D904BD
S1130A9041F49A81963320F4953319F43C8534FF5C
S1130AA081E3B70190E04EC08A81813319F09C85BF
S1130AB09F7E9C87B70190E00E945608111105C0E3
S1130AC094FC18C085E690E017C0B7018EE290E070
S1130AD00E9456081E5F82E001E0080FF301E80F50
S1130AE0F11D8081B70190E00E945608802F011308
S1130AF0F3CFE6CF85E490E0B7010E945608D7FC17
S1130B0006C0C114D10441F4EC85E4FF05C0D194BE
S1130B10C194D1088DE201C08BE2B70190E00E943C
S1130B20560880E32AE0C216D1042CF08F5FFAE065
S1130B30CF1AD108F7CFB70190E00E945608B70149
S1130B40C601C0960E94560854C1833631F08337DB
S1130B5079F0833509F056C020C0560132E0A30E67
S1130B60B11CF6018081898301E010E0630112C0A9
S1130B705601F2E0AF0EB11CF601C080D18096FEA2
S1130B8003C0612F70E002C06FEF7FEFC6010E94C7
S1130B904B088C01F92DFF7714C0560122E0A20EF8
S1130BA0B11CF601C080D18096FE03C0612F70E0B5
S1130BB002C06FEF7FEFC6010E9440088C01F92D3F
S1130BC0F0689F2EF3FD1AC0852D90E008171907D1
S1130BD0A8F4B70180E290E00E9456085A94F4CF3A
S1130BE0F60197FC859197FE81916F01B70190E022
S1130BF00E94560851105A9401501109011511050B
S1130C0079F7F7C0843611F0893661F5560197FEFD
S1130C1009C024E0A20EB11CF601608171818281B9
S1130C2093810AC0F2E0AF0EB11CF60160817181BC
S1130C30072E000C880B990BF92DFF769F2E97FF3A
S1130C4009C090958095709561957F4F8F4F9F4F08
S1130C50F0689F2E2AE030E0A3010E94B408C82E59
S1130C60C6183FC0092D853721F40F7E2AE030E0F5
S1130C701DC0097F8F3691F018F4883559F0C3C030
S1130C80803719F0883711F0BEC0006104FF09C035
S1130C90046007C094FE08C0066006C028E030E087
S1130CA005C020E130E002C020E132E0560107FF38
S1130CB009C084E0A80EB11CF601608171818281B3
S1130CC0938108C0F2E0AF0EB11CF601608171811E
S1130CD080E090E0A3010E94B408C82EC6180F77E4
S1130CE0902E96FE0BC0092D0E7FC11650F494FE73
S1130CF00AC092FC08C0092D0E7E05C0DC2C092D0B
S1130D0003C0DC2C01C0D12E04FF0DC0FE01EC0D8C
S1130D10F11D8081803311F4097E09C002FF06C0F1
S1130D20D394D39404C0802F867809F0D39403FD20
S1130D3011C000FF06C01C2DD51480F4150D1D191B
S1130D400DC0D51458F4B70180E290E00E94560813
S1130D50D394F7CFD51410F45D1801C0512C04FFBF
S1130D6010C0B70180E390E00E94560802FF17C04C
S1130D7001FD03C088E790E002C088E590E0B70178
S1130D800CC0802F867859F001FF02C08BE201C0AD
S1130D9080E207FD8DE2B70190E00E945608C1167B
S1130DA038F4B70180E390E00E9456081150F7CF61
S1130DB0CA94F301EC0DF11D8081B70190E00E940B
S1130DC05608C110F5CF15C0F4E0F51560F584E0C0
S1130DD0581A93FE1FC0011127C02C8523FF2AC077
S1130DE004E510E0392D3071932EF80184918111BE
S1130DF024C0552009F4E4CCB70180E290E00E94BD
S1130E0056085A94F6CFF7018681978126C08FEF52
S1130E109FEF23C0B70180E290E00E9456085A94E5
S1130E205110F8CFD8CF512CB701802F90E00E94F9
S1130E305608D3CF08E510E0D5CF91108052B70102
S1130E4090E00E9456080F5F1F4FCFCF23E0251577
S1130E5010F483E0BDCF512CC0CF6096E2E10C9436
S1130E604D072F923F924F925F926F927F928F9293
S1130E709F92AF92BF92CF92DF92EF92FF920F9325
S1130E801F93CF93DF93CDB7DEB7CA1BDB0B0FB62F
S1130E90F894DEBF0FBECDBF09942A8839884888EC
S1130EA05F846E847D848C849B84AA84B984C88482
S1130EB0DF80EE80FD800C811B81AA81B981CE0F79
S1130EC0D11D0FB6F894DEBF0FBECDBFED0108955E
S1130ED0283008F027E03327DA01990F311D87FD08
S1130EE0916000966105710539F432602E5F3D937F
S1130EF030E32A95E1F708959F3F30F0803871057B
S1130F00610509F03C5F3C5F3D93913008F08068D7
S1130F10911DDF93CF931F930F93FF92EF92192F9D
S1130F20987F9695E92F96959695E90FFF27EA54B1
S1130F30FF4F99273327EE24FF24A701E7010590EB
S1130F400894079428F4360FE71EF81E491F511D14
S1130F50660F771F881F991F0694A1F705900794C1
S1130F6028F4E70EF81E491F561FC11D770F881F6E
S1130F70991F661F0694A1F70590079428F4F80EAC
S1130F80491F561FC71FD11D880F991F661F771F42
S1130F900694A1F70590079420F4490F561FC71F24
S1130FA0D81F990F661F771F881F0694A9F784918D
S1130FB01095177041F0D695C79557954795F794B6
S1130FC0E7941A95C1F7ECE5F0E068941590159153
S1130FD035916591959105907FE27395E118F10A39
S1130FE0430B560BC90BD009C0F7E10CF11E431F8C
S1130FF0561FC91FD01D7EF4703311F48A95E6CFB5
S1131000E894015030F0080F0AF40027021708F49E
S1131010202F2395022F7A3328F079E37D932A95A4
S1131020E9F710C07D932A9589F6069497956795FC
S1131030379517951794E118F10A430B560BC90B12
S1131040D00998F023957E9173957A3308F070E374
S11310507C932013B8F77E9170617D9330F0839573
S113106071E37D9370E32A95E1F71124EF90FF90EB
S11310700F911F91CF91DF91992787FD9095089546
S1131080FC010590615070400110D8F7809590954F
S11310908E0F9F1F0895FC01615070400190011054
S11310A0D8F7809590958E0F9F1F08950F931F93E7
S11310B0CF93DF93FB01238121FD03C08FEF9FEFCB
S11310C02CC022FF16C046815781248135814217E6
S11310D0530744F4A081B1819D012F5F3F4F3183B9
S11310E020838C93268137812F5F3F4F378326835C
S11310F014C08B01EC01FB010084F185E02D0995FE
S1131100892BE1F6D80116968D919C91179701963B
S113111017969C938E931697CE01DF91CF911F91D2
S11311200F910895AEE0B0E0E8E9F8E00C943F07D1
S11311300D891E8986E08C831A8309838FEF9FE7CC
S11311409E838D83AE01475E5F4F6F89788DCE019C
S113115001960E94B403EF81F885E00FF11F10821D
S11311602E96E4E00C945B07FA01AA27283051F18B
S1131170203181F1E8946F936E7F6E5F7F4F8F4FC4
S11311809F4FAF4FB1E03ED0B4E03CD0670F781F23
S1131190891F9A1FA11D680F791F8A1F911DA11D08
S11311A06A0F711D811D911DA11D20D009F4689441
S11311B03F912AE0269F11243019305D3193DEF6E9
S11311C0CF010895462F4770405D4193B3E00FD09F
S11311D0C9F7F6CF462F4F70405D4A3318F0495D8A
S11311E031FD4052419302D0A9F7EACFB4E0A6956D
S11311F09795879577956795BA95C9F7009761058F
S1131200710508959B01AC010A2E069457954795E4
S113121037952795BA95C9F7620F731F841F951FD9
S10B1220A01D0895F894FFCF0E
S1131228014553503A73656E736F7256616C7565F8
S11312383A224D6F6973745F53656E736F72225BE4
S113124825645D0A004553503A73656E736F725690
S1131258616C75653A22546D705F53656E736F7275
S1131268225B252E31665D0A004553503A72657338
S1131278746172740A004553503A737369643A226C
S113128853656E735F426F61726431220A0045537D
S1131298503A61646453656E736F723A20224D6FDD
S11312A86973745F53656E736F72220A00455350F5
S11312B83A61646453656E736F723A2022546D7098
S11312C85F53656E736F72220A004553503A41505A
S10B12D853746172740A0000F2
S9030000FC
