S0190000696E7465726D6564696174655F6E6F64652E737265630B
S11300000C94C9000C94E6000C94E6000C94E600F1
S11300100C94E6000C94E6000C94E6000C94E600C4
S11300200C9442010C94E6000C94E6000C94E60057
S11300300C94E6000C94E6000C94E6000C94E600A4
S11300400C94E6000C94E6000C94E6000C94E60094
S11300500C94E6006E616E00696E660000407A10D2
S1130060F35A00A0724E18090010A5D4E80000E865
S11300707648170000E40B54020000CA9A3B0000C3
S113008000E1F505000080969800000040420F0052
S11300900000A08601000000102700000000E80313
S11300A0000000006400000000000A0000000000DE
S11300B00100000000002C76D888DC674F0823DF9D
S11300C0C1DFAE59E1B1B796E5E3E453C63AE65170
S11300D0997696E8E6C28426EB898C9B62ED407C97
S11300E06FFCEFBC9C9F40F2BAA56FA5F490055A33
S11300F02AF75C936B6CF9676DC11BFCE0E40D4758
S1130100FEF520E6B500D0ED902E0300943577057A
S11301100080841E080000204E0A000000C80C3332
S11301203333330F986E12831141EF8D2114893BC1
S1130130E65516CFFEE6DB18D1844B381BF77C1D41
S1130140901DA4BBE424203284725E228100C9F194
S113015024ECA1E53D274E414E494E495459494EA0
S113016046CDCCCC3D0AD7233C17B7D13877CC2B1E
S1130170329595E6241FB14F0A000020410000C8C3
S11301804200401C4620BCBE4CCA1B0E5AAEC59D44
S1130190740011241FBECFE5D4E0DEBFCDBF12E052
S11301A0A0E6B0E0EAEBF9E102C005900D92AE34AE
S11301B0B107D9F723E0AEE4B2E001C01D92A93E35
S11301C0B207E1F70E9480030C94DB0C0C9400004E
S11301D01BB828E12AB990BD89B986E880BD089585
S11301E05D9BFECF8CB908955F9BFECF8CB10895C3
S11301F01F93CF93DF93EC0110E007C0FE01E80FDB
S1130200F91F80810E94F0001F5F812F90E0FE01A2
S113021001900020E9F73197EC1BFD0B8E179F0727
S113022068F3DF91CF911F9108950F931F93CF939C
S1130230DF938C010E94F8000E94F40013C08634FE
S113024079F404C00E94F400219602C0C0E0D0E01A
S1130250C530D105BCF38FEF88BBC8010E94F800FC
S11302600E94F400833559F7C0E0D0E003C00E9437
S1130270F4002196C830D105D4F3DF91CF911F91BA
S11302800F9108951F920F920FB60F921124CF92DF
S1130290DF92EF92FF920F931F932F933F934F930D
S11302A05F936F937F938F939F93AF93BF93CF93FA
S11302B0DF93EF93FF938091DE03811102C2E12C5F
S11302C0F12CF8C0FF92EF9280E690E09F938F9319
S11302D08AE592E09F938F930E94A60A8AE592E0B2
S11302E00E94150180E2E9E7F0E0AAE5B2E001909E
S11302F00D928A95E1F78AE592E00E94150189E260
S1130300E9E9F0E0AAE5B2E001900D928A95E1F7FF
S11303108AE592E00E94150187E2E2ECF0E0AAE5AA
S1130320B2E001900D928A95E1F78AE592E00E948D
S113033015018DE0E9EEF0E0AAE5B2E001900D923E
S11303408A95E1F78AE592E00E94150182E1E6EFE1
S1130350F0E0AAE5B2E001900D928A95E1F78AE512
S113036092E00E94F8000F900F900F900F900F9062
S11303700F900E94F4008232E1F70E94F400863468
S113038011F0D12C02C0DD24D394C0E0D0E009C028
S11303908E010F5F1F4FC152DC4F88830E94F4000F
S11303A0E801823211F0DD2099F30E94F400D110AB
S11303B02EC025E030E00CC0F901E81BF90BE15236
S11303C0FC4F8081F901E152FC4F808321503109B7
S11303D086E090E08C1B9D0B281739076CF720E012
S11303E030E007C0F901E152FC4F40E340832F5F46
S11303F03F4F28173907B4F38FED93E00E94560955
S1130400F701EE0FFF1FEE5AFD4F918380830E9488
S1130410F400823211F0DD20D1F30E94F40086341E
S113042011F4DD24D394C0E0D0E009C08E010F5F45
S11304301F4FC152DC4F88830E94F400E8018232CE
S113044011F0DD2099F30E94F400D11030C025E0B2
S113045030E00CC0F901E81BF90BE152FC4F80813C
S1130460F901E152FC4F80832150310986E090E08C
S11304708C1B9D0B281739076CF720E030E007C070
S1130480F901E152FC4F40E340832F5F3F4F2817AF
S11304903907B4F38FED93E00E945209E701CC0FC2
S11304A0DD1FC452DC4F0E946D04798368838FEF93
S11304B0E81AF80A1E141F040CF004CF10924E021E
S11304C010924F0210925002109251021092DB02CD
S11304D01092DA02C0E0D0E032C0CE01880F991F3A
S11304E0FC01EE5AFD4F208131814091DA02509196
S11304F0DB02240F351F3093DB022093DA02FC0168
S1130500E452FC4F60817181072E000C880B990B1B
S11305100E94A5049B01AC0160914E0270914F02B0
S113052080915002909151020E94010460934E0206
S113053070934F02809350029093510221961C169F
S11305401D065CF60091DA021091DB02C0904E02A7
S1130550D0904F02E0905002F0905102C0E0D0E001
S113056042C0CE01880F991FFC01EE5AFD4F208135
S11305703181201B310B229FA001239F500D500D70
S113058011242091540230915502240F351F3093C9
S1130590550220935402FC01E452FC4F60817181A6
S11305A0072E000C880B990B0E94A504A701960145
S11305B00E9400049B01AC010E9431059B01AC0127
S11305C0609156027091570280915802909159029D
S11305D00E9401046093560270935702809358025C
S11305E09093590221961C161D060CF0BACF609107
S11305F056027091570280915802909159020E94BC
S11306006D047093E6036093E5031F930F9388E0F2
S113061091E09F938F93CAE5D2E0DF93CF930E943A
S1130620A60ACE010E941501809151028F938091F8
S113063050028F9380914F028F9380914E028F933B
S113064089E291E09F938F93DF93CF930E94A60A50
S1130650CE010E941501809155028F93809154021E
S11306608F938AE491E09F938F93DF93CF930E94BB
S1130670A60ACE010E9415018091E6038F93809112
S1130680E5038F938BE691E09F938F93DF93CF9352
S11306900E94A60ACE010E94150184E1EAE8F1E075
S11306A0DE0101900D928A95E1F7CE010E941501B9
S11306B08DB79EB74A960FB6F8949EBF0FBE8DBFF6
S11306C002C01092DE038CED9BE09DBD8CBDFF91BA
S11306D0EF91DF91CF91BF91AF919F918F917F91D6
S11306E06F915F914F913F912F911F910F91FF90C7
S11306F0EF90DF90CF900F900FBE0F901F90189542
S113070081E08093DE0383E390E00E94E80080E0D0
S113071090E00EC09C01220F331FF901EE5AFD4FE9
S113072011821082F901E452FC4F11821082019669
S1130730181619067CF78DE0EEE9F1E0AAE5B2E0BF
S113074001900D928A95E1F78AE592E00E941501E5
S11307508EE1EBEAF1E0AAE5B2E001900D928A9510
S1130760E1F78AE592E00E9415018CE1E9ECF1E001
S1130770AAE5B2E001900D928A95E1F78AE592E04C
S11307800E9415018BE1E5EEF1E0AAE5B2E00190EB
S11307900D928A95E1F78AE592E00E94150189E1BC
S11307A0E0E0F2E0AAE5B2E001900D928A95E1F76B
S11307B08AE592E00E9415018BE1E9E1F2E0AAE505
S11307C0B2E001900D928A95E1F78AE592E00E94E9
S11307D0150189E1E4E3F2E0AAE5B2E001900D92AB
S11307E08A95E1F78AE592E00E94150185E08EBDC5
S11307F08CED9BE09DBD8CBD84E089BF7894FFCFD8
S11308005058BB27AA270E9418040C94F7040E948E
S1130810E90438F00E94F00420F039F49F3F19F401
S113082026F40C94E6040EF4E095E7FB0C94E00443
S1130830E92F0E94080558F3BA1762077307840763
S1130840950720F079F4A6F50C942A050EF4E095AA
S11308500B2EBA2FA02D0B01B90190010C01CA0176
S1130860A0011124FF27591B99F0593F50F4503E21
S113087068F11A16F040A22F232F342F4427585F13
S1130880F3CF469537952795A795F0405395C9F72B
S11308907EF41F16BA0B620B730B840BBAF09150E3
S11308A0A1F0FF0FBB1F661F771F881FC2F70EC082
S11308B0BA0F621F731F841F48F487957795679555
S11308C0B795F7959E3F08F0B0CF9395880F08F041
S11308D09927EE0F9795879508950E94740468945C
S11308E0B1110C942B0508950E94100588F09F57B0
S11308F098F0B92F9927B751B0F0E1F0660F771F40
S1130900881F991F1AF0BA95C9F714C0B13091F035
S11309100E942A05B1E008950C942A05672F782FC8
S11309208827B85F39F0B93FCCF3869577956795FA
S1130930B395D9F73EF490958095709561957F4F66
S11309408F4F9F4F0895E89409C097FB3EF490950C
S11309508095709561957F4F8F4F9F4F9923A9F094
S1130960F92F96E9BB279395F69587957795679523
S1130970B795F111F8CFFAF4BB0F11F460FF1BC067
S11309806F5F7F4F8F4F9F4F16C0882311F096E9FA
S113099011C0772321F09EE8872F762F05C06623A8
S11309A071F096E8862F70E060E02AF09A95660F61
S11309B0771F881FDAF7880F9695879597F908951A
S11309C097F99F6780E870E060E008959FEF80ECFE
S11309D0089500240A9416161706180609060895A1
S11309E000240A9412161306140605060895092E07
S11309F00394000C11F4882352F0BB0F40F4BF2B76
S1130A0011F460FF04C06F5F7F4F8F4F9F4F0895B5
S1130A1057FD9058440F551F59F05F3F71F04795AB
S1130A20880F97FB991F61F09F3F79F08795089590
S1130A30121613061406551FF2CF4695F1DF08C0AF
S1130A40161617061806991FF1CF869571056105CC
S1130A5008940895E894BB2766277727CB0197F974
S1130A6008950E9444050C94F7040E94E90438F0A8
S1130A700E94F00420F0952311F00C94E0040C94EF
S1130A80E60411240C942B050E94080570F3959F2D
S1130A90C1F3950F50E0551F629FF001729FBB2771
S1130AA0F00DB11D639FAA27F00DB11DAA1F649F0D
S1130AB06627B00DA11D661F829F2227B00DA11DC0
S1130AC0621F739FB00DA11D621F839FA00D611D46
S1130AD0221F749F3327A00D611D231F849F600D67
S1130AE0211D822F762F6A2F11249F5750409AF090
S1130AF0F1F088234AF0EE0FFF1FBB1F661F771F1C
S1130B00881F91505040A9F79E3F510580F00C94E6
S1130B10E0040C942B055F3FE4F3983ED4F38695F0
S1130B2077956795B795F795E7959F5FC1F7FE2B86
S1130B30880F911D9695879597F90895A0E1B0E0E7
S1130B40E4EAF5E00C941B097C011B016A01FC0139
S1130B5017821682838181FF44C39E012F5F3F4F1A
S1130B603901F7019381F10193FD859193FF8191FF
S1130B701F01882309F431C3853239F493FD85912B
S1130B8093FF81911F01853239F4B70190E00E94EF
S1130B906A0A56016501E5CF10E0512C912CFFE162
S1130BA0F915D8F08B3279F038F4803279F0833249
S1130BB0A1F4F92DF0612EC08D3261F0803369F417
S1130BC0292D21602DC0392D3260932E892D84600A
S1130BD0982E2AC0E92DE86015C097FC2DC020EDA1
S1130BE0280F2A3088F496FE06C03AE0139F200DA1
S1130BF01124122F19C08AE0589E200D1124522E60
S1130C00E92DE0629E2E10C08E3231F496FCE5C2CE
S1130C10F92DF0649F2E08C08C3621F4292D20680C
S1130C20922E02C0883641F4F10193FD859193FF21
S1130C3081911F018111B3CF9BEB980F933020F466
S1130C40992D9061805E07C09BE9980F933008F05E
S1130C5066C1992D9F7E96FF16E09F73992E853667
S1130C6019F49064992E08C0863621F4392F30681F
S1130C70932E02C01111115097FE07C01C3350F47B
S1130C8044244394410E27E00BC0183038F027E089
S1130C9017E005C027E09CE3492E02C0212F412C18
S1130CA0560184E0A80EB11CF60160817181828135
S1130CB09381042DA3010E9474096C01F981FC87BE
S1130CC0F0FF02C0F3FF06C091FC06C092FE06C00E
S1130CD000E205C00DE203C00BE201C000E08C8518
S1130CE08C7019F001115AC29BC297FE10C04C0CB3
S1130CF0FC85F4FF04C08A81813309F44A941414F6
S1130D0074F528E0241578F588E0482E2CC096FC6C
S1130D102AC0812F90E08C159D059CF03CEFC316F2
S1130D203FEFD30674F0892D8068982E0AC0E2E064
S1130D30F0E0EC0FFD1FE10FF11D8081803319F409
S1130D4011501111F4CF97FE0EC044244394410E68
S1130D50812F90E0C816D9062CF41C1904C0442431
S1130D60439401C010E097FE06C01C141D0434F423
S1130D70C601019605C085E090E002C081E090E0E4
S1130D8001110196112331F0212F30E02F5F3F4FE5
S1130D90820F931F252D30E08217930714F4581AFD
S1130DA001C0512C892D897049F4552039F0B701BF
S1130DB080E290E00E946A0A5A94F7CF002329F057
S1130DC0B701802F90E00E946A0A93FC09C0552065
S1130DD039F0B70180E390E00E946A0A5A94F7CF91
S1130DE097FE4CC04601D7FE02C0812C912CC6014F
S1130DF088199909F301E80FF91FFE87ED87960119
S1130E0024193109388B2F87012F10E01195019592
S1130E1011093FEF8316930629F4B7018EE290E09F
S1130E200E946A0AC814D9044CF08F8598898815E1
S1130E30990524F4ED85FE85818101C080E3F1E00C
S1130E408F1A91082D853E852F5F3F4F3E872D8752
S1130E50801691062CF0B70190E00E946A0AD9CF5F
S1130E60C814D90441F49A81963320F4953319F4C3
S1130E703C8534FF81E3B70190E04EC08A81813321
S1130E8019F09C859F7E9C87B70190E00E946A0AB6
S1130E90111105C094FC18C085E690E017C0B70195
S1130EA08EE290E00E946A0A1E5F82E001E0080F71
S1130EB0F301E80FF11D8081B70190E00E946A0AF6
S1130EC0802F0113F3CFE6CF85E490E0B7010E94B1
S1130ED06A0AD7FC06C0C114D10441F4EC85E4FFCE
S1130EE005C0D194C194D1088DE201C08BE2B70151
S1130EF090E00E946A0A80E32AE0C216D1042CF032
S1130F008F5FFAE0CF1AD108F7CFB70190E00E94C3
S1130F106A0AB701C601C0960E946A0A54C18336A0
S1130F2031F0833779F0833509F056C020C056017B
S1130F3032E0A30EB11CF6018081898301E010E048
S1130F40630112C05601F2E0AF0EB11CF601C0807D
S1130F50D18096FE03C0612F70E002C06FEF7FEF77
S1130F60C6010E94570A8C01F92DFF7714C056015F
S1130F7022E0A20EB11CF601C080D18096FE03C00F
S1130F80612F70E002C06FEF7FEFC6010E944C0A30
S1130F908C01F92DF0689F2EF3FD1AC0852D90E089
S1130FA008171907A8F4B70180E290E00E946A0AC2
S1130FB05A94F4CFF60197FC859197FE81916F01C5
S1130FC0B70190E00E946A0A51105A940150110925
S1130FD00115110579F7F7C0843611F0893661F5EA
S1130FE0560197FE09C024E0A20EB11CF6016081EF
S1130FF07181828193810AC0F2E0AF0EB11CF601C7
S113100060817181072E000C880B990BF92DFF76F6
S11310109F2E97FF09C090958095709561957F4F9D
S11310208F4F9F4FF0689F2E2AE030E0A3010E946B
S1131030C80AC82EC6183FC0092D853721F40F7E73
S11310402AE030E01DC0097F8F3691F018F488350E
S113105059F0C3C0803719F0883711F0BEC0006161
S113106004FF09C0046007C094FE08C0066006C0FF
S113107028E030E005C020E130E002C020E132E0A9
S1131080560107FF09C084E0A80EB11CF601608177
S113109071818281938108C0F2E0AF0EB11CF60128
S11310A06081718180E090E0A3010E94C80AC82E8B
S11310B0C6180F77902E96FE0BC0092D0E7FC11611
S11310C050F494FE0AC092FC08C0092D0E7E05C09F
S11310D0DC2C092D03C0DC2C01C0D12E04FF0DC073
S11310E0FE01EC0DF11D8081803311F4097E09C0ED
S11310F002FF06C0D394D39404C0802F867809F0ED
S1131100D39403FD11C000FF06C01C2DD51480F438
S1131110150D1D190DC0D51458F4B70180E290E0E7
S11311200E946A0AD394F7CFD51410F45D1801C055
S1131130512C04FF10C0B70180E390E00E946A0ABA
S113114002FF17C001FD03C088E790E002C088E5F4
S113115090E0B7010CC0802F867859F001FF02C0DF
S11311608BE201C080E207FD8DE2B70190E00E94AE
S11311706A0AC11638F4B70180E390E00E946A0A53
S11311801150F7CFCA94F301EC0DF11D8081B70122
S113119090E00E946A0AC110F5CF15C0F4E0F5157D
S11311A060F584E0581A93FE1FC0011127C02C85F6
S11311B023FF2AC004E510E0392D3071932EF80185
S11311C08491811124C0552009F4E4CCB70180E254
S11311D090E00E946A0A5A94F6CFF70186819781BB
S11311E026C08FEF9FEF23C0B70180E290E00E94FA
S11311F06A0A5A945110F8CFD8CF512CB701802FD6
S113120090E00E946A0AD3CF08E510E0D5CF911090
S11312108052B70190E00E946A0A0F5F1F4FCFCF40
S113122023E0251510F483E0BDCF512CC0CF609688
S1131230E2E10C9437092F923F924F925F926F92A2
S11312407F928F929F92AF92BF92CF92DF92EF9252
S1131250FF920F931F93CF93DF93CDB7DEB7CA1BD3
S1131260DB0B0FB6F894DEBF0FBECDBF09942A88FE
S1131270398848885F846E847D848C849B84AA84A6
S1131280B984C884DF80EE80FD800C811B81AA8133
S1131290B981CE0FD11D0FB6F894DEBF0FBECDBFFE
S11312A0ED010895662777270C94260BFC01882707
S11312B09927E89421912032E9F3293010F02E3057
S11312C0C8F32B3241F02D3239F4689404C00E94E3
S11312D0620A820F911D219120532A30C0F31EF41B
S11312E0909581959F4F0895283008F027E0332783
S11312F0DA01990F311D87FD916000966105710532
S113130039F432602E5F3D9330E32A95E1F7089576
S11313109F3F30F080387105610509F03C5F3C5F08
S11313203D93913008F08068911DDF93CF931F9314
S11313300F93FF92EF92192F987F9695E92F969528
S11313409695E90FFF27EA54FF4F99273327EE2498
S1131350FF24A701E70105900894079428F4360FA9
S1131360E71EF81E491F511D660F771F881F991F1E
S11313700694A1F70590079428F4E70EF81E491F78
S1131380561FC11D770F881F991F661F0694A1F76A
S11313900590079428F4F80E491F561FC71FD11D46
S11313A0880F991F661F771F0694A1F7059007946D
S11313B020F4490F561FC71FD81F990F661F771FA8
S11313C0881F0694A9F784911095177041F0D6955B
S11313D0C79557954795F794E7941A95C1F7ECE5A7
S11313E0F0E068941590159135916591959105906B
S11313F07FE27395E118F10A430B560BC90BD00930
S1131400C0F7E10CF11E431F561FC91FD01D7EF407
S1131410703311F48A95E6CFE894015030F0080F48
S11314200AF40027021708F4202F2395022F7A3399
S113143028F079E37D932A95E9F710C07D932A95E6
S113144089F6069497956795379517951794E1183B
S1131450F10A430B560BC90BD00998F023957E91E2
S113146073957A3308F070E37C932013B8F77E9178
S113147070617D9330F0839571E37D9370E32A95D9
S1131480E1F71124EF90FF900F911F91CF91DF911D
S1131490992787FD90950895FC010590615070404F
S11314A00110D8F7809590958E0F9F1F0895FC0129
S11314B06150704001900110D8F7809590958E0F7F
S11314C09F1F08957AE0979F902D879F802D910DFF
S11314D0112408950F931F93CF93DF93FB0123816E
S11314E021FD03C08FEF9FEF2CC022FF16C0468161
S11314F05781248135814217530744F4A081B18177
S11315009D012F5F3F4F318320838C932681378148
S11315102F5F3F4F3783268314C08B01EC01FB01FF
S11315200084F185E02D0995892BE1F6D801169602
S11315308D919C911797019617969C938E9316976D
S1131540CE01DF91CF911F910F910895AEE0B0E0ED
S1131550ECEAFAE00C9429090D891E8986E08C8353
S11315601A8309838FEF9FE79E838D83AE01475EC5
S11315705F4F6F89788DCE0101960E949E05EF81A1
S1131580F885E00FF11F10822E96E4E00C944509D3
S1131590FA01AA27283051F1203181F1E8946F93A0
S11315A06E7F6E5F7F4F8F4F9F4FAF4FB1E03ED046
S11315B0B4E03CD0670F781F891F9A1FA11D680FE4
S11315C0791F8A1F911DA11D6A0F711D811D911D17
S11315D0A11D20D009F468943F912AE0269F11248C
S11315E03019305D3193DEF6CF010895462F4770F0
S11315F0405D4193B3E00FD0C9F7F6CF462F4F704B
S1131600405D4A3318F0495D31FD4052419302D0A8
S1131610A9F7EACFB4E0A69597958795779567954E
S1131620BA95C9F700976105710508959B01AC014E
S11316300A2E06945795479537952795BA95C9F775
S1131640620F731F841F951FA01D0895A0E0B0E0D2
S1131650ECE2FBE00C942109EC016B0161157105CE
S113166019F0FB01918380837E01FFEFEF1AFF0ADB
S11316700881802F90E00E94740C892B11F0E701FF
S1131680F3CF0D3239F47E0182E0E80EF11C0981BA
S113169011E008C00B3229F47E0192E0E90EF11C3E
S11316A0098110E0E701219743E050E06EE571E025
S11316B0CE010E947D0C892BC1F4239645E050E0B5
S11316C069E571E0CE010E947D0C892B09F4259611
S11316D0C114D10419F0F601D183C0831111F6C0ED
S11316E060E070E080E89FE7FAC043E050E066E520
S11316F071E0CE010E947D0C892B59F4C114D104F0
S113170009F4E9C0F2E0EF0EF11CF601F182E08287
S1131710E2C020E030E0A901C0E0D0E0F70180EDB4
S1131720A82EA00E89E08A1530F1912F9260B92E6F
S1131730812F887012FF04C0811124C0219622C019
S113174081112197A5E0B0E00E94C10CDC01CB011E
S1131750880F991FAA1FBB1F9C01AD012A0D311DC3
S1131760411D511D283989E93807480789E158077F
S113177048F0166006C09EEFA9120AC013FD40C0CF
S11317801860B12E8FEFE81AF80A00811B2DC6CF1E
S1131790802F8F7D8534A1F580818D3211F4106105
S11317A006C08B3221F0319661E070E004C0818183
S11317B0329662E070E080538A3018F0E61BF70B33
S11317C01FC060E070E060389CE079075CF4DB01E6
S11317D0AA0FBB1FAA0FBB1F6A0F7B1F660F771FC1
S11317E0680F711D3196DF0111978C9180538A30F7
S11317F050F314FF03C0719561957109C60FD71F8B
S113180011FF08C0C114D10429F0CF010197F601DA
S113181091838083CA01B9010E94A304212F2370FC
S1131820233019F04B015C0106C04B015C01B7FA8F
S1131830B094B7F8B09420E030E0A901C501B40138
S11318400E94950C882309F43EC0D7FF06C0D195A9
S1131850C195D10905E711E002C00DE811E0680166
S1131860F8E1CF1AD10890E2E92EF12CCE15DF056C
S113187074F0F8012591359145915491C501B40155
S11318800E9431054B015C01CE19DF09EFCF0450F2
S11318901109F594E7940C151D0541F78A2D880F5D
S11318A08B2D881F8F3F49F020E030E0A901C5014E
S11318B0B4010E94950C811106C082E290E09093DD
S11318C0E8038093E703C501B40109C060E070E058
S11318D080E89FEF04C060E070E080EC9FE7CDB744
S11318E0DEB7ECE00C943D0991110C94BE0C8032EF
S11318F019F089508550C8F70895FB01DC01415067
S1131900504088F08D9181341CF08B350CF4805E4E
S1131910659161341CF06B350CF4605E861B6111BB
S113192071F3990B0895881BFCCF0E949A0C08F45C
S113193081E00895990F0008550FAA0BE0E8FEEF27
S113194016161706E807F907C0F012161306E4077F
S1131950F50798F0621B730B840B950B39F40A2678
S113196061F0232B242B252B21F408950A2609F456
S1131970A140A6958FEF811D811D08959927882781
S113198008950E94CC0CA59F900DB49F900DA49F28
S1131990800D911D11240895A29FB001B39FC00131
S11319A0A39F700D811D1124911DB29F700D811D87
S10D19B01124911D0895F894FFCF4F
S11319BA4553503A737369643A2253656E735F42AE
S11319CA6F6172642564220A004553503A70617348
S11319DA73776F72643A22617765736F6D655061CC
S11319EA7373776F7264220A004553503A73656EB3
S11319FA736F7256616C75653A224D6F6973745FC1
S1131A0A53656E736F72225B726571756573745D6B
S1131A1A0A004553503A73656E736F7256616C755A
S1131A2A653A22546D705F53656E736F72225B72EE
S1131A3A6571756573745D0A004553503A636F6E38
S1131A4A6E6563740A004553503A676574416C6C59
S1131A5A56616C7565730A004553503A73656E7323
S1131A6A6F7256616C75653A224D6F6973745F6162
S1131A7A7667225B25645D0A004553503A73656EA6
S1131A8A736F7256616C75653A22546D705F617634
S1131A9A67225B252E31665D0A004553503A736509
S1131AAA6E736F7256616C75653A224D6F69737401
S1131ABA5F766172225B25645D0A004553503A736E
S1131ACA656E736F7256616C75653A22546D705FF8
S1131ADA766172225B25645D0A004553503A636C51
S1131AEA69656E745472616E736D69740A00455344
S1131AFA503A726573746172740A004553503A61BC
S1131B0A646453656E736F723A224D6F6973745FBE
S1131B1A53656E736F72220A004553503A616464C6
S1131B2A53656E736F723A22546D705F53656E73A8
S1131B3A6F72220A004553503A61646453656E73A6
S1131B4A6F723A224D6F6973745F617667220A0075
S1131B5A4553503A61646453656E736F723A225402
S1131B6A6D705F617667220A004553503A61646476
S1131B7A53656E736F723A224D6F6973745F76613F
S1131B8A72220A004553503A61646453656E736F56
S1111B9A723A22546D705F766172220A000066
S9030000FC
